{
  "_format": "hh-sol-artifact-1",
  "contractName": "BettingContract",
  "sourceName": "contracts/BettingContract.sol",
  "abi": [
    {
      "inputs": [
        {
          "internalType": "uint256",
          "name": "_targetSubscribers",
          "type": "uint256"
        },
        {
          "internalType": "uint256",
          "name": "_durationMinutes",
          "type": "uint256"
        },
        {
          "internalType": "string",
          "name": "_channelId",
          "type": "string"
        }
      ],
      "stateMutability": "nonpayable",
      "type": "constructor"
    },
    {
      "inputs": [],
      "name": "betAmount",
      "outputs": [
        {
          "internalType": "uint256",
          "name": "",
          "type": "uint256"
        }
      ],
      "stateMutability": "view",
      "type": "function"
    },
    {
      "inputs": [
        {
          "internalType": "address",
          "name": "",
          "type": "address"
        }
      ],
      "name": "bets",
      "outputs": [
        {
          "internalType": "address",
          "name": "bettor",
          "type": "address"
        },
        {
          "internalType": "enum BettingContract.BetOption",
          "name": "option",
          "type": "uint8"
        }
      ],
      "stateMutability": "view",
      "type": "function"
    },
    {
      "inputs": [],
      "name": "channelId",
      "outputs": [
        {
          "internalType": "string",
          "name": "",
          "type": "string"
        }
      ],
      "stateMutability": "view",
      "type": "function"
    },
    {
      "inputs": [],
      "name": "claimReward",
      "outputs": [],
      "stateMutability": "nonpayable",
      "type": "function"
    },
    {
      "inputs": [],
      "name": "deadline",
      "outputs": [
        {
          "internalType": "uint256",
          "name": "",
          "type": "uint256"
        }
      ],
      "stateMutability": "view",
      "type": "function"
    },
    {
      "inputs": [],
      "name": "finalSubscribers",
      "outputs": [
        {
          "internalType": "uint256",
          "name": "",
          "type": "uint256"
        }
      ],
      "stateMutability": "view",
      "type": "function"
    },
    {
      "inputs": [],
      "name": "getNoBettors",
      "outputs": [
        {
          "internalType": "address[]",
          "name": "",
          "type": "address[]"
        }
      ],
      "stateMutability": "view",
      "type": "function"
    },
    {
      "inputs": [],
      "name": "getSummary",
      "outputs": [
        {
          "internalType": "string",
          "name": "",
          "type": "string"
        },
        {
          "internalType": "uint256",
          "name": "",
          "type": "uint256"
        },
        {
          "internalType": "uint256",
          "name": "",
          "type": "uint256"
        },
        {
          "internalType": "uint256",
          "name": "",
          "type": "uint256"
        },
        {
          "internalType": "uint256",
          "name": "",
          "type": "uint256"
        }
      ],
      "stateMutability": "view",
      "type": "function"
    },
    {
      "inputs": [],
      "name": "getYesBettors",
      "outputs": [
        {
          "internalType": "address[]",
          "name": "",
          "type": "address[]"
        }
      ],
      "stateMutability": "view",
      "type": "function"
    },
    {
      "inputs": [
        {
          "internalType": "uint256",
          "name": "",
          "type": "uint256"
        }
      ],
      "name": "noBettors",
      "outputs": [
        {
          "internalType": "address",
          "name": "",
          "type": "address"
        }
      ],
      "stateMutability": "view",
      "type": "function"
    },
    {
      "inputs": [],
      "name": "oracleCalled",
      "outputs": [
        {
          "internalType": "bool",
          "name": "",
          "type": "bool"
        }
      ],
      "stateMutability": "view",
      "type": "function"
    },
    {
      "inputs": [],
      "name": "owner",
      "outputs": [
        {
          "internalType": "address",
          "name": "",
          "type": "address"
        }
      ],
      "stateMutability": "view",
      "type": "function"
    },
    {
      "inputs": [
        {
          "internalType": "bool",
          "name": "_predictsYes",
          "type": "bool"
        }
      ],
      "name": "placeBet",
      "outputs": [],
      "stateMutability": "payable",
      "type": "function"
    },
    {
      "inputs": [
        {
          "internalType": "uint256",
          "name": "_subscribers",
          "type": "uint256"
        }
      ],
      "name": "submitResult",
      "outputs": [],
      "stateMutability": "nonpayable",
      "type": "function"
    },
    {
      "inputs": [],
      "name": "targetSubscribers",
      "outputs": [
        {
          "internalType": "uint256",
          "name": "",
          "type": "uint256"
        }
      ],
      "stateMutability": "view",
      "type": "function"
    },
    {
      "inputs": [
        {
          "internalType": "uint256",
          "name": "",
          "type": "uint256"
        }
      ],
      "name": "yesBettors",
      "outputs": [
        {
          "internalType": "address",
          "name": "",
          "type": "address"
        }
      ],
      "stateMutability": "view",
      "type": "function"
    }
  ],
  "bytecode": "0x60806040526000600460006101000a81548160ff0219169083151502179055503480156200002c57600080fd5b5060405162001fe938038062001fe98339818101604052810190620000529190620002a4565b336000806101000a81548173ffffffffffffffffffffffffffffffffffffffff021916908373ffffffffffffffffffffffffffffffffffffffff16021790555082600181905550603c82620000a891906200034e565b42620000b5919062000399565b6002819055508060039081620000cc919062000615565b50505050620006fc565b6000604051905090565b600080fd5b600080fd5b6000819050919050565b620000ff81620000ea565b81146200010b57600080fd5b50565b6000815190506200011f81620000f4565b92915050565b600080fd5b600080fd5b6000601f19601f8301169050919050565b7f4e487b7100000000000000000000000000000000000000000000000000000000600052604160045260246000fd5b6200017a826200012f565b810181811067ffffffffffffffff821117156200019c576200019b62000140565b5b80604052505050565b6000620001b1620000d6565b9050620001bf82826200016f565b919050565b600067ffffffffffffffff821115620001e257620001e162000140565b5b620001ed826200012f565b9050602081019050919050565b60005b838110156200021a578082015181840152602081019050620001fd565b60008484015250505050565b60006200023d6200023784620001c4565b620001a5565b9050828152602081018484840111156200025c576200025b6200012a565b5b62000269848285620001fa565b509392505050565b600082601f83011262000289576200028862000125565b5b81516200029b84826020860162000226565b91505092915050565b600080600060608486031215620002c057620002bf620000e0565b5b6000620002d0868287016200010e565b9350506020620002e3868287016200010e565b925050604084015167ffffffffffffffff811115620003075762000306620000e5565b5b620003158682870162000271565b9150509250925092565b7f4e487b7100000000000000000000000000000000000000000000000000000000600052601160045260246000fd5b60006200035b82620000ea565b91506200036883620000ea565b92508282026200037881620000ea565b915082820484148315176200039257620003916200031f565b5b5092915050565b6000620003a682620000ea565b9150620003b383620000ea565b9250828201905080821115620003ce57620003cd6200031f565b5b92915050565b600081519050919050565b7f4e487b7100000000000000000000000000000000000000000000000000000000600052602260045260246000fd5b600060028204905060018216806200042757607f821691505b6020821081036200043d576200043c620003df565b5b50919050565b60008190508160005260206000209050919050565b60006020601f8301049050919050565b600082821b905092915050565b600060088302620004a77fffffffffffffffffffffffffffffffffffffffffffffffffffffffffffffffff8262000468565b620004b3868362000468565b95508019841693508086168417925050509392505050565b6000819050919050565b6000620004f6620004f0620004ea84620000ea565b620004cb565b620000ea565b9050919050565b6000819050919050565b6200051283620004d5565b6200052a6200052182620004fd565b84845462000475565b825550505050565b600090565b6200054162000532565b6200054e81848462000507565b505050565b5b8181101562000576576200056a60008262000537565b60018101905062000554565b5050565b601f821115620005c5576200058f8162000443565b6200059a8462000458565b81016020851015620005aa578190505b620005c2620005b98562000458565b83018262000553565b50505b505050565b600082821c905092915050565b6000620005ea60001984600802620005ca565b1980831691505092915050565b6000620006058383620005d7565b9150826002028217905092915050565b6200062082620003d4565b67ffffffffffffffff8111156200063c576200063b62000140565b5b6200064882546200040e565b620006558282856200057a565b600060209050601f8311600181146200068d576000841562000678578287015190505b620006848582620005f7565b865550620006f4565b601f1984166200069d8662000443565b60005b82811015620006c757848901518255600182019150602085019450602081019050620006a0565b86831015620006e75784890151620006e3601f891682620005d7565b8355505b6001600288020188555050505b505050505050565b6118dd806200070c6000396000f3fe6080604052600436106100f35760003560e01c806349bee2101161008a578063d24257c011610059578063d24257c014610312578063d762975f1461033d578063e2cee54414610368578063f517953014610393576100f3565b806349bee2101461026757806389a78f1a146102925780638da5cb5b146102d0578063b88a802f146102fb576100f3565b806329dcb0cf116100c657806329dcb0cf146101a557806335f5bc89146101d05780634051ddac1461020d57806340dc875e1461023c576100f3565b8063096a3778146100f857806312eef7421461011457806317b3f2b41461013f57806321dc64291461017c575b600080fd5b610112600480360381019061010d9190610f6d565b6103be565b005b34801561012057600080fd5b50610129610706565b6040516101369190610fa9565b60405180910390f35b34801561014b57600080fd5b5061016660048036038101906101619190610ffa565b610719565b6040516101739190611068565b60405180910390f35b34801561018857600080fd5b506101a3600480360381019061019e9190610ffa565b610758565b005b3480156101b157600080fd5b506101ba6108a0565b6040516101c79190611092565b60405180910390f35b3480156101dc57600080fd5b506101f760048036038101906101f29190610ffa565b6108a6565b6040516102049190611068565b60405180910390f35b34801561021957600080fd5b506102226108e5565b60405161023395949392919061113d565b60405180910390f35b34801561024857600080fd5b5061025161099e565b60405161025e9190611255565b60405180910390f35b34801561027357600080fd5b5061027c610a2c565b6040516102899190611092565b60405180910390f35b34801561029e57600080fd5b506102b960048036038101906102b491906112a3565b610a32565b6040516102c7929190611347565b60405180910390f35b3480156102dc57600080fd5b506102e5610a83565b6040516102f29190611068565b60405180910390f35b34801561030757600080fd5b50610310610aa7565b005b34801561031e57600080fd5b50610327610e03565b6040516103349190611092565b60405180910390f35b34801561034957600080fd5b50610352610e0e565b60405161035f9190611092565b60405180910390f35b34801561037457600080fd5b5061037d610e14565b60405161038a9190611370565b60405180910390f35b34801561039f57600080fd5b506103a8610ea2565b6040516103b59190611255565b60405180910390f35b6002544210610402576040517f08c379a00000000000000000000000000000000000000000000000000000000081526004016103f9906113de565b60405180910390fd5b662386f26fc10000341461044b576040517f08c379a00000000000000000000000000000000000000000000000000000000081526004016104429061144a565b60405180910390fd5b6000600281111561045f5761045e6112d0565b5b600660003373ffffffffffffffffffffffffffffffffffffffff1673ffffffffffffffffffffffffffffffffffffffff16815260200190815260200160002060000160149054906101000a900460ff1660028111156104c1576104c06112d0565b5b14610501576040517f08c379a00000000000000000000000000000000000000000000000000000000081526004016104f8906114b6565b60405180910390fd5b60008161050f576002610512565b60015b905060405180604001604052803373ffffffffffffffffffffffffffffffffffffffff16815260200182600281111561054e5761054d6112d0565b5b815250600660003373ffffffffffffffffffffffffffffffffffffffff1673ffffffffffffffffffffffffffffffffffffffff16815260200190815260200160002060008201518160000160006101000a81548173ffffffffffffffffffffffffffffffffffffffff021916908373ffffffffffffffffffffffffffffffffffffffff16021790555060208201518160000160146101000a81548160ff02191690836002811115610602576106016112d0565b5b02179055509050506001600281111561061e5761061d6112d0565b5b816002811115610631576106306112d0565b5b0361069e576007339080600181540180825580915050600190039060005260206000200160009091909190916101000a81548173ffffffffffffffffffffffffffffffffffffffff021916908373ffffffffffffffffffffffffffffffffffffffff160217905550610702565b6008339080600181540180825580915050600190039060005260206000200160009091909190916101000a81548173ffffffffffffffffffffffffffffffffffffffff021916908373ffffffffffffffffffffffffffffffffffffffff1602179055505b5050565b600460009054906101000a900460ff1681565b6008818154811061072957600080fd5b906000526020600020016000915054906101000a900473ffffffffffffffffffffffffffffffffffffffff1681565b60008054906101000a900473ffffffffffffffffffffffffffffffffffffffff1673ffffffffffffffffffffffffffffffffffffffff163373ffffffffffffffffffffffffffffffffffffffff16146107e6576040517f08c379a00000000000000000000000000000000000000000000000000000000081526004016107dd90611548565b60405180910390fd5b60025442101561082b576040517f08c379a0000000000000000000000000000000000000000000000000000000008152600401610822906115b4565b60405180910390fd5b600460009054906101000a900460ff161561087b576040517f08c379a000000000000000000000000000000000000000000000000000000000815260040161087290611620565b60405180910390fd5b6001600460006101000a81548160ff0219169083151502179055508060058190555050565b60025481565b600781815481106108b657600080fd5b906000526020600020016000915054906101000a900473ffffffffffffffffffffffffffffffffffffffff1681565b6060600080600080600360015460025460078054905060088054905084805461090d9061166f565b80601f01602080910402602001604051908101604052809291908181526020018280546109399061166f565b80156109865780601f1061095b57610100808354040283529160200191610986565b820191906000526020600020905b81548152906001019060200180831161096957829003601f168201915b50505050509450945094509450945094509091929394565b60606007805480602002602001604051908101604052809291908181526020018280548015610a2257602002820191906000526020600020905b8160009054906101000a900473ffffffffffffffffffffffffffffffffffffffff1673ffffffffffffffffffffffffffffffffffffffff16815260200190600101908083116109d8575b5050505050905090565b60055481565b60066020528060005260406000206000915090508060000160009054906101000a900473ffffffffffffffffffffffffffffffffffffffff16908060000160149054906101000a900460ff16905082565b60008054906101000a900473ffffffffffffffffffffffffffffffffffffffff1681565b600460009054906101000a900460ff16610af6576040517f08c379a0000000000000000000000000000000000000000000000000000000008152600401610aed906116ec565b60405180910390fd5b6000600660003373ffffffffffffffffffffffffffffffffffffffff1673ffffffffffffffffffffffffffffffffffffffff1681526020019081526020016000206040518060400160405290816000820160009054906101000a900473ffffffffffffffffffffffffffffffffffffffff1673ffffffffffffffffffffffffffffffffffffffff1673ffffffffffffffffffffffffffffffffffffffff1681526020016000820160149054906101000a900460ff166002811115610bbd57610bbc6112d0565b5b6002811115610bcf57610bce6112d0565b5b81525050905060006002811115610be957610be86112d0565b5b81602001516002811115610c0057610bff6112d0565b5b03610c40576040517f08c379a0000000000000000000000000000000000000000000000000000000008152600401610c3790611758565b60405180910390fd5b600060015460055410158015610c7e575060016002811115610c6557610c646112d0565b5b82602001516002811115610c7c57610c7b6112d0565b5b145b80610cbf5750600154600554108015610cbe5750600280811115610ca557610ca46112d0565b5b82602001516002811115610cbc57610cbb6112d0565b5b145b5b905080610d01576040517f08c379a0000000000000000000000000000000000000000000000000000000008152600401610cf8906117c4565b60405180910390fd5b6000600660003373ffffffffffffffffffffffffffffffffffffffff1673ffffffffffffffffffffffffffffffffffffffff16815260200190815260200160002060000160146101000a81548160ff02191690836002811115610d6757610d666112d0565b5b02179055506000662386f26fc1000047610d819190611813565b905060006001546005541015610d9c57600880549050610da3565b6007805490505b905060008183610db39190611876565b90503373ffffffffffffffffffffffffffffffffffffffff166108fc829081150290604051600060405180830381858888f19350505050158015610dfb573d6000803e3d6000fd5b505050505050565b662386f26fc1000081565b60015481565b60038054610e219061166f565b80601f0160208091040260200160405190810160405280929190818152602001828054610e4d9061166f565b8015610e9a5780601f10610e6f57610100808354040283529160200191610e9a565b820191906000526020600020905b815481529060010190602001808311610e7d57829003601f168201915b505050505081565b60606008805480602002602001604051908101604052809291908181526020018280548015610f2657602002820191906000526020600020905b8160009054906101000a900473ffffffffffffffffffffffffffffffffffffffff1673ffffffffffffffffffffffffffffffffffffffff1681526020019060010190808311610edc575b5050505050905090565b600080fd5b60008115159050919050565b610f4a81610f35565b8114610f5557600080fd5b50565b600081359050610f6781610f41565b92915050565b600060208284031215610f8357610f82610f30565b5b6000610f9184828501610f58565b91505092915050565b610fa381610f35565b82525050565b6000602082019050610fbe6000830184610f9a565b92915050565b6000819050919050565b610fd781610fc4565b8114610fe257600080fd5b50565b600081359050610ff481610fce565b92915050565b6000602082840312156110105761100f610f30565b5b600061101e84828501610fe5565b91505092915050565b600073ffffffffffffffffffffffffffffffffffffffff82169050919050565b600061105282611027565b9050919050565b61106281611047565b82525050565b600060208201905061107d6000830184611059565b92915050565b61108c81610fc4565b82525050565b60006020820190506110a76000830184611083565b92915050565b600081519050919050565b600082825260208201905092915050565b60005b838110156110e75780820151818401526020810190506110cc565b60008484015250505050565b6000601f19601f8301169050919050565b600061110f826110ad565b61111981856110b8565b93506111298185602086016110c9565b611132816110f3565b840191505092915050565b600060a08201905081810360008301526111578188611104565b90506111666020830187611083565b6111736040830186611083565b6111806060830185611083565b61118d6080830184611083565b9695505050505050565b600081519050919050565b600082825260208201905092915050565b6000819050602082019050919050565b6111cc81611047565b82525050565b60006111de83836111c3565b60208301905092915050565b6000602082019050919050565b600061120282611197565b61120c81856111a2565b9350611217836111b3565b8060005b8381101561124857815161122f88826111d2565b975061123a836111ea565b92505060018101905061121b565b5085935050505092915050565b6000602082019050818103600083015261126f81846111f7565b905092915050565b61128081611047565b811461128b57600080fd5b50565b60008135905061129d81611277565b92915050565b6000602082840312156112b9576112b8610f30565b5b60006112c78482850161128e565b91505092915050565b7f4e487b7100000000000000000000000000000000000000000000000000000000600052602160045260246000fd5b600381106113105761130f6112d0565b5b50565b6000819050611321826112ff565b919050565b600061133182611313565b9050919050565b61134181611326565b82525050565b600060408201905061135c6000830185611059565b6113696020830184611338565b9392505050565b6000602082019050818103600083015261138a8184611104565b905092915050565b7f42657474696e6720706572696f64206973206f76657200000000000000000000600082015250565b60006113c86016836110b8565b91506113d382611392565b602082019050919050565b600060208201905081810360008301526113f7816113bb565b9050919050565b7f496e636f72726563742062657420616d6f756e74000000000000000000000000600082015250565b60006114346014836110b8565b915061143f826113fe565b602082019050919050565b6000602082019050818103600083015261146381611427565b9050919050565b7f416c726561647920706c61636564206120626574000000000000000000000000600082015250565b60006114a06014836110b8565b91506114ab8261146a565b602082019050919050565b600060208201905081810360008301526114cf81611493565b9050919050565b7f4f6e6c79206f7261636c6520286f776e6572292063616e2063616c6c2074686960008201527f7300000000000000000000000000000000000000000000000000000000000000602082015250565b60006115326021836110b8565b915061153d826114d6565b604082019050919050565b6000602082019050818103600083015261156181611525565b9050919050565b7f42657474696e67207374696c6c206f6e676f696e670000000000000000000000600082015250565b600061159e6015836110b8565b91506115a982611568565b602082019050919050565b600060208201905081810360008301526115cd81611591565b9050919050565b7f526573756c7420616c7265616479207375626d69747465640000000000000000600082015250565b600061160a6018836110b8565b9150611615826115d4565b602082019050919050565b60006020820190508181036000830152611639816115fd565b9050919050565b7f4e487b7100000000000000000000000000000000000000000000000000000000600052602260045260246000fd5b6000600282049050600182168061168757607f821691505b60208210810361169a57611699611640565b5b50919050565b7f526573756c74206e6f7420617661696c61626c65000000000000000000000000600082015250565b60006116d66014836110b8565b91506116e1826116a0565b602082019050919050565b60006020820190508181036000830152611705816116c9565b9050919050565b7f4e6f2062657420666f756e640000000000000000000000000000000000000000600082015250565b6000611742600c836110b8565b915061174d8261170c565b602082019050919050565b6000602082019050818103600083015261177181611735565b9050919050565b7f596f75206c6f7374207468652062657400000000000000000000000000000000600082015250565b60006117ae6010836110b8565b91506117b982611778565b602082019050919050565b600060208201905081810360008301526117dd816117a1565b9050919050565b7f4e487b7100000000000000000000000000000000000000000000000000000000600052601160045260246000fd5b600061181e82610fc4565b915061182983610fc4565b9250828201905080821115611841576118406117e4565b5b92915050565b7f4e487b7100000000000000000000000000000000000000000000000000000000600052601260045260246000fd5b600061188182610fc4565b915061188c83610fc4565b92508261189c5761189b611847565b5b82820490509291505056fea264697066735822122021d72766f27eab329c57a4f6b0f2011351c891169bde3df2284bf6434860989f64736f6c63430008130033",
  "linkReferences": {},
  "deployedLinkReferences": {}
}