{
  "_format": "hh-sol-artifact-1",
  "contractName": "BettingContract",
  "sourceName": "contracts/BettingContract.sol",
  "abi": [
    {
      "inputs": [
        {
          "internalType": "uint256",
          "name": "_targetSubscribers",
          "type": "uint256"
        },
        {
          "internalType": "uint256",
          "name": "_durationMinutes",
          "type": "uint256"
        }
      ],
      "stateMutability": "nonpayable",
      "type": "constructor"
    },
    {
      "inputs": [],
      "name": "betAmount",
      "outputs": [
        {
          "internalType": "uint256",
          "name": "",
          "type": "uint256"
        }
      ],
      "stateMutability": "view",
      "type": "function"
    },
    {
      "inputs": [
        {
          "internalType": "address",
          "name": "",
          "type": "address"
        }
      ],
      "name": "bets",
      "outputs": [
        {
          "internalType": "address",
          "name": "bettor",
          "type": "address"
        },
        {
          "internalType": "enum BettingContract.BetOption",
          "name": "option",
          "type": "uint8"
        }
      ],
      "stateMutability": "view",
      "type": "function"
    },
    {
      "inputs": [],
      "name": "claimReward",
      "outputs": [],
      "stateMutability": "nonpayable",
      "type": "function"
    },
    {
      "inputs": [],
      "name": "deadline",
      "outputs": [
        {
          "internalType": "uint256",
          "name": "",
          "type": "uint256"
        }
      ],
      "stateMutability": "view",
      "type": "function"
    },
    {
      "inputs": [],
      "name": "finalSubscribers",
      "outputs": [
        {
          "internalType": "uint256",
          "name": "",
          "type": "uint256"
        }
      ],
      "stateMutability": "view",
      "type": "function"
    },
    {
      "inputs": [],
      "name": "getNoBettors",
      "outputs": [
        {
          "internalType": "address[]",
          "name": "",
          "type": "address[]"
        }
      ],
      "stateMutability": "view",
      "type": "function"
    },
    {
      "inputs": [],
      "name": "getYesBettors",
      "outputs": [
        {
          "internalType": "address[]",
          "name": "",
          "type": "address[]"
        }
      ],
      "stateMutability": "view",
      "type": "function"
    },
    {
      "inputs": [
        {
          "internalType": "uint256",
          "name": "",
          "type": "uint256"
        }
      ],
      "name": "noBettors",
      "outputs": [
        {
          "internalType": "address",
          "name": "",
          "type": "address"
        }
      ],
      "stateMutability": "view",
      "type": "function"
    },
    {
      "inputs": [],
      "name": "oracleCalled",
      "outputs": [
        {
          "internalType": "bool",
          "name": "",
          "type": "bool"
        }
      ],
      "stateMutability": "view",
      "type": "function"
    },
    {
      "inputs": [],
      "name": "owner",
      "outputs": [
        {
          "internalType": "address",
          "name": "",
          "type": "address"
        }
      ],
      "stateMutability": "view",
      "type": "function"
    },
    {
      "inputs": [
        {
          "internalType": "bool",
          "name": "_predictsYes",
          "type": "bool"
        }
      ],
      "name": "placeBet",
      "outputs": [],
      "stateMutability": "payable",
      "type": "function"
    },
    {
      "inputs": [
        {
          "internalType": "uint256",
          "name": "_subscribers",
          "type": "uint256"
        }
      ],
      "name": "submitResult",
      "outputs": [],
      "stateMutability": "nonpayable",
      "type": "function"
    },
    {
      "inputs": [],
      "name": "targetSubscribers",
      "outputs": [
        {
          "internalType": "uint256",
          "name": "",
          "type": "uint256"
        }
      ],
      "stateMutability": "view",
      "type": "function"
    },
    {
      "inputs": [
        {
          "internalType": "uint256",
          "name": "",
          "type": "uint256"
        }
      ],
      "name": "yesBettors",
      "outputs": [
        {
          "internalType": "address",
          "name": "",
          "type": "address"
        }
      ],
      "stateMutability": "view",
      "type": "function"
    }
  ],
  "bytecode": "0x60806040526000600360006101000a81548160ff0219169083151502179055503480156200002c57600080fd5b50604051620017da380380620017da833981810160405281019062000052919062000103565b336000806101000a81548173ffffffffffffffffffffffffffffffffffffffff021916908373ffffffffffffffffffffffffffffffffffffffff16021790555081600181905550603c81620000a8919062000179565b42620000b59190620001c4565b6002819055505050620001ff565b600080fd5b6000819050919050565b620000dd81620000c8565b8114620000e957600080fd5b50565b600081519050620000fd81620000d2565b92915050565b600080604083850312156200011d576200011c620000c3565b5b60006200012d85828601620000ec565b92505060206200014085828601620000ec565b9150509250929050565b7f4e487b7100000000000000000000000000000000000000000000000000000000600052601160045260246000fd5b60006200018682620000c8565b91506200019383620000c8565b9250828202620001a381620000c8565b91508282048414831517620001bd57620001bc6200014a565b5b5092915050565b6000620001d182620000c8565b9150620001de83620000c8565b9250828201905080821115620001f957620001f86200014a565b5b92915050565b6115cb806200020f6000396000f3fe6080604052600436106100dd5760003560e01c806349bee2101161007f578063b88a802f11610059578063b88a802f146102b6578063d24257c0146102cd578063d762975f146102f8578063f517953014610323576100dd565b806349bee2101461022257806389a78f1a1461024d5780638da5cb5b1461028b576100dd565b806321dc6429116100bb57806321dc64291461016657806329dcb0cf1461018f57806335f5bc89146101ba57806340dc875e146101f7576100dd565b8063096a3778146100e257806312eef742146100fe57806317b3f2b414610129575b600080fd5b6100fc60048036038101906100f79190610db6565b61034e565b005b34801561010a57600080fd5b50610113610696565b6040516101209190610df2565b60405180910390f35b34801561013557600080fd5b50610150600480360381019061014b9190610e43565b6106a9565b60405161015d9190610eb1565b60405180910390f35b34801561017257600080fd5b5061018d60048036038101906101889190610e43565b6106e8565b005b34801561019b57600080fd5b506101a4610830565b6040516101b19190610edb565b60405180910390f35b3480156101c657600080fd5b506101e160048036038101906101dc9190610e43565b610836565b6040516101ee9190610eb1565b60405180910390f35b34801561020357600080fd5b5061020c610875565b6040516102199190610fb4565b60405180910390f35b34801561022e57600080fd5b50610237610903565b6040516102449190610edb565b60405180910390f35b34801561025957600080fd5b50610274600480360381019061026f9190611002565b610909565b6040516102829291906110a6565b60405180910390f35b34801561029757600080fd5b506102a061095a565b6040516102ad9190610eb1565b60405180910390f35b3480156102c257600080fd5b506102cb61097e565b005b3480156102d957600080fd5b506102e2610cda565b6040516102ef9190610edb565b60405180910390f35b34801561030457600080fd5b5061030d610ce5565b60405161031a9190610edb565b60405180910390f35b34801561032f57600080fd5b50610338610ceb565b6040516103459190610fb4565b60405180910390f35b6002544210610392576040517f08c379a00000000000000000000000000000000000000000000000000000000081526004016103899061112c565b60405180910390fd5b662386f26fc1000034146103db576040517f08c379a00000000000000000000000000000000000000000000000000000000081526004016103d290611198565b60405180910390fd5b600060028111156103ef576103ee61102f565b5b600560003373ffffffffffffffffffffffffffffffffffffffff1673ffffffffffffffffffffffffffffffffffffffff16815260200190815260200160002060000160149054906101000a900460ff1660028111156104515761045061102f565b5b14610491576040517f08c379a000000000000000000000000000000000000000000000000000000000815260040161048890611204565b60405180910390fd5b60008161049f5760026104a2565b60015b905060405180604001604052803373ffffffffffffffffffffffffffffffffffffffff1681526020018260028111156104de576104dd61102f565b5b815250600560003373ffffffffffffffffffffffffffffffffffffffff1673ffffffffffffffffffffffffffffffffffffffff16815260200190815260200160002060008201518160000160006101000a81548173ffffffffffffffffffffffffffffffffffffffff021916908373ffffffffffffffffffffffffffffffffffffffff16021790555060208201518160000160146101000a81548160ff021916908360028111156105925761059161102f565b5b0217905550905050600160028111156105ae576105ad61102f565b5b8160028111156105c1576105c061102f565b5b0361062e576006339080600181540180825580915050600190039060005260206000200160009091909190916101000a81548173ffffffffffffffffffffffffffffffffffffffff021916908373ffffffffffffffffffffffffffffffffffffffff160217905550610692565b6007339080600181540180825580915050600190039060005260206000200160009091909190916101000a81548173ffffffffffffffffffffffffffffffffffffffff021916908373ffffffffffffffffffffffffffffffffffffffff1602179055505b5050565b600360009054906101000a900460ff1681565b600781815481106106b957600080fd5b906000526020600020016000915054906101000a900473ffffffffffffffffffffffffffffffffffffffff1681565b60008054906101000a900473ffffffffffffffffffffffffffffffffffffffff1673ffffffffffffffffffffffffffffffffffffffff163373ffffffffffffffffffffffffffffffffffffffff1614610776576040517f08c379a000000000000000000000000000000000000000000000000000000000815260040161076d90611296565b60405180910390fd5b6002544210156107bb576040517f08c379a00000000000000000000000000000000000000000000000000000000081526004016107b290611302565b60405180910390fd5b600360009054906101000a900460ff161561080b576040517f08c379a00000000000000000000000000000000000000000000000000000000081526004016108029061136e565b60405180910390fd5b6001600360006101000a81548160ff0219169083151502179055508060048190555050565b60025481565b6006818154811061084657600080fd5b906000526020600020016000915054906101000a900473ffffffffffffffffffffffffffffffffffffffff1681565b606060068054806020026020016040519081016040528092919081815260200182805480156108f957602002820191906000526020600020905b8160009054906101000a900473ffffffffffffffffffffffffffffffffffffffff1673ffffffffffffffffffffffffffffffffffffffff16815260200190600101908083116108af575b5050505050905090565b60045481565b60056020528060005260406000206000915090508060000160009054906101000a900473ffffffffffffffffffffffffffffffffffffffff16908060000160149054906101000a900460ff16905082565b60008054906101000a900473ffffffffffffffffffffffffffffffffffffffff1681565b600360009054906101000a900460ff166109cd576040517f08c379a00000000000000000000000000000000000000000000000000000000081526004016109c4906113da565b60405180910390fd5b6000600560003373ffffffffffffffffffffffffffffffffffffffff1673ffffffffffffffffffffffffffffffffffffffff1681526020019081526020016000206040518060400160405290816000820160009054906101000a900473ffffffffffffffffffffffffffffffffffffffff1673ffffffffffffffffffffffffffffffffffffffff1673ffffffffffffffffffffffffffffffffffffffff1681526020016000820160149054906101000a900460ff166002811115610a9457610a9361102f565b5b6002811115610aa657610aa561102f565b5b81525050905060006002811115610ac057610abf61102f565b5b81602001516002811115610ad757610ad661102f565b5b03610b17576040517f08c379a0000000000000000000000000000000000000000000000000000000008152600401610b0e90611446565b60405180910390fd5b600060015460045410158015610b55575060016002811115610b3c57610b3b61102f565b5b82602001516002811115610b5357610b5261102f565b5b145b80610b965750600154600454108015610b955750600280811115610b7c57610b7b61102f565b5b82602001516002811115610b9357610b9261102f565b5b145b5b905080610bd8576040517f08c379a0000000000000000000000000000000000000000000000000000000008152600401610bcf906114b2565b60405180910390fd5b6000600560003373ffffffffffffffffffffffffffffffffffffffff1673ffffffffffffffffffffffffffffffffffffffff16815260200190815260200160002060000160146101000a81548160ff02191690836002811115610c3e57610c3d61102f565b5b02179055506000662386f26fc1000047610c589190611501565b905060006001546004541015610c7357600780549050610c7a565b6006805490505b905060008183610c8a9190611564565b90503373ffffffffffffffffffffffffffffffffffffffff166108fc829081150290604051600060405180830381858888f19350505050158015610cd2573d6000803e3d6000fd5b505050505050565b662386f26fc1000081565b60015481565b60606007805480602002602001604051908101604052809291908181526020018280548015610d6f57602002820191906000526020600020905b8160009054906101000a900473ffffffffffffffffffffffffffffffffffffffff1673ffffffffffffffffffffffffffffffffffffffff1681526020019060010190808311610d25575b5050505050905090565b600080fd5b60008115159050919050565b610d9381610d7e565b8114610d9e57600080fd5b50565b600081359050610db081610d8a565b92915050565b600060208284031215610dcc57610dcb610d79565b5b6000610dda84828501610da1565b91505092915050565b610dec81610d7e565b82525050565b6000602082019050610e076000830184610de3565b92915050565b6000819050919050565b610e2081610e0d565b8114610e2b57600080fd5b50565b600081359050610e3d81610e17565b92915050565b600060208284031215610e5957610e58610d79565b5b6000610e6784828501610e2e565b91505092915050565b600073ffffffffffffffffffffffffffffffffffffffff82169050919050565b6000610e9b82610e70565b9050919050565b610eab81610e90565b82525050565b6000602082019050610ec66000830184610ea2565b92915050565b610ed581610e0d565b82525050565b6000602082019050610ef06000830184610ecc565b92915050565b600081519050919050565b600082825260208201905092915050565b6000819050602082019050919050565b610f2b81610e90565b82525050565b6000610f3d8383610f22565b60208301905092915050565b6000602082019050919050565b6000610f6182610ef6565b610f6b8185610f01565b9350610f7683610f12565b8060005b83811015610fa7578151610f8e8882610f31565b9750610f9983610f49565b925050600181019050610f7a565b5085935050505092915050565b60006020820190508181036000830152610fce8184610f56565b905092915050565b610fdf81610e90565b8114610fea57600080fd5b50565b600081359050610ffc81610fd6565b92915050565b60006020828403121561101857611017610d79565b5b600061102684828501610fed565b91505092915050565b7f4e487b7100000000000000000000000000000000000000000000000000000000600052602160045260246000fd5b6003811061106f5761106e61102f565b5b50565b60008190506110808261105e565b919050565b600061109082611072565b9050919050565b6110a081611085565b82525050565b60006040820190506110bb6000830185610ea2565b6110c86020830184611097565b9392505050565b600082825260208201905092915050565b7f42657474696e6720706572696f64206973206f76657200000000000000000000600082015250565b60006111166016836110cf565b9150611121826110e0565b602082019050919050565b6000602082019050818103600083015261114581611109565b9050919050565b7f496e636f72726563742062657420616d6f756e74000000000000000000000000600082015250565b60006111826014836110cf565b915061118d8261114c565b602082019050919050565b600060208201905081810360008301526111b181611175565b9050919050565b7f416c726561647920706c61636564206120626574000000000000000000000000600082015250565b60006111ee6014836110cf565b91506111f9826111b8565b602082019050919050565b6000602082019050818103600083015261121d816111e1565b9050919050565b7f4f6e6c79206f7261636c6520286f776e6572292063616e2063616c6c2074686960008201527f7300000000000000000000000000000000000000000000000000000000000000602082015250565b60006112806021836110cf565b915061128b82611224565b604082019050919050565b600060208201905081810360008301526112af81611273565b9050919050565b7f42657474696e67207374696c6c206f6e676f696e670000000000000000000000600082015250565b60006112ec6015836110cf565b91506112f7826112b6565b602082019050919050565b6000602082019050818103600083015261131b816112df565b9050919050565b7f526573756c7420616c7265616479207375626d69747465640000000000000000600082015250565b60006113586018836110cf565b915061136382611322565b602082019050919050565b600060208201905081810360008301526113878161134b565b9050919050565b7f526573756c74206e6f7420617661696c61626c65000000000000000000000000600082015250565b60006113c46014836110cf565b91506113cf8261138e565b602082019050919050565b600060208201905081810360008301526113f3816113b7565b9050919050565b7f4e6f2062657420666f756e640000000000000000000000000000000000000000600082015250565b6000611430600c836110cf565b915061143b826113fa565b602082019050919050565b6000602082019050818103600083015261145f81611423565b9050919050565b7f596f75206c6f7374207468652062657400000000000000000000000000000000600082015250565b600061149c6010836110cf565b91506114a782611466565b602082019050919050565b600060208201905081810360008301526114cb8161148f565b9050919050565b7f4e487b7100000000000000000000000000000000000000000000000000000000600052601160045260246000fd5b600061150c82610e0d565b915061151783610e0d565b925082820190508082111561152f5761152e6114d2565b5b92915050565b7f4e487b7100000000000000000000000000000000000000000000000000000000600052601260045260246000fd5b600061156f82610e0d565b915061157a83610e0d565b92508261158a57611589611535565b5b82820490509291505056fea26469706673582212203ea922c2f207e704d776c9c3080ab70630b0533072f71984f8840ce702d5d05764736f6c63430008130033",
  "linkReferences": {},
  "deployedLinkReferences": {}
}